:0300000002072ACA
:0C072A00787FE4F6D8FD7581210207718C
:1007B6002430312563256325632563256325632559
:1007C60063256325632563256325632563256325E3
:0B07D60063256325632563210D0A00E5
:0C087D0042005A000042005C0000C189EB
:10082700E490004EF0A3F0A3F0A3F0A3F0A3F0A38D
:0C083700F0A3F0A3F0A3F0A3F0A3F022C4
:07000300E4F5D975DF482286
:0E086F00758840758921758D95D28CD28E22A8
:04089F007598102216
:07088A0075BCA075E8802297
:0408A30075D10722E2
:1008080075A70F75F1FEE4F5F275F3F075A4FF75A1
:0F081800D40175D5FF75D60F75E10175E2402249
:0708910075A70F75B7832264
:0708980075A70F75A882226D
:1008430012000312086F12089F12088A1208A312DB
:0B0853000808120891120898020827FC
:10085E00AEA7E4F5A78F993099FDC299AF068FA781
:01086E002267
:0D05CB00900002EBF0A3EAF0A3E9F0AE050A
:1005D800E4FBFA900008F0A3F0A3F0A3F0FDFCA35D
:1005E800F0A3F0C2EC8FBAAF068FBB20EC3FC2ED90
:1005F800E4F5BEF5BDD2EC30EDFD30ED30AFBE9088
:100608000008E4F0A3EFF0AFBDA3E4F0A3EFF0908F
:100618000009E0FE90000BE02400FD90000AE03E97
:10062800FC90000DE02DF090000CE03CF00BBB00BE
:10063800010AEB64074A70B390000CE0FEA3E0FFE8
:100648007C007D081204B490000CEEF0A3EFF0FDDE
:1006580090000CE0FF900002E0FBA3E0FAA3E0F9B1
:10066800EF1204A2900005E0FBA3E0FAA3E0F9ED85
:030678000204A2D7
:03000B000203737A
:10037300C0E0C0F0C083C082C0D075D000C000C050
:1003830001C002C003C004C005C006C00790005BE3
:10039300E004F0700690005AE004F090005AE07018
:1003A30004A3E06421600302048730090302048785
:1003B30090005AF0A3F0F58AF58C758AFF9000112E
:1003C30074FFF0A37407F0A374B6F0A37401F09064
:1003D300004EE0900015F090004FE0900016F0A35F
:1003E3007402F0900050E0900018F0900051E090FB
:1003F3000019F0A37403F0900052E090001BF090FA
:100403000053E090001CF0A37404F0900054E090BB
:10041300001EF0900055E090001FF0A37405F090CB
:100423000056E0900021F0900057E0900022F0A3E6
:100433007406F0900058E0900024F0900059E0908A
:100443000025F07B017A00793612007390005CE49A
:10045300F0A3F090005CE0FEA3E0FFC39418EE94D9
:1004630000501F74362FF58274003EF583E0FF12AF
:10047300085E90005DE004F0700690005CE004F01C
:1004830080D1D209D007D006D005D004D003D00242
:0F049300D001D000D0D0D082D083D0F0D0E032D2
:10067B00120843D2863009FD9000057401F0A37473
:10068B0000F0A37459F07B017A007958E4FD7F01E7
:10069B001205CB9000057401F0A37400F0A37457FE
:1006AB00F07B017A0079567D027F031205CB900017
:1006BB00057401F0A37400F0A37455F07B017A006C
:1006CB0079547D047F051205CB9000057401F0A3CE
:1006DB007400F0A37453F07B017A0079527D067F8E
:1006EB00071205CB9000057401F0A37400F0A374FE
:1006FB0051F07B017A0079507D087F091205CB9070
:10070B0000057401F0A37400F0A3744FF07B017A21
:0F071B0000794E7D0A7F0B1205CBC209020680C2
:1007360002067BE493A3F8E493A34003F68001F258
:1007460008DFF48029E493A3F85407240CC8C333C4
:10075600C4540F4420C8834004F456800146F6DF93
:10076600E4800B010204081020408090087DE47E9E
:10077600019360BCA3FF543F30E509541FFEE49388
:10078600A360010ECF54C025E060A840B8E493A34F
:10079600FAE493A3F8E493A3C8C582C8CAC583CA7A
:1007A600F0A3C8C582C8CAC583CADFE9DEE780BE32
:01088900006E
:1004A200BB010689828A83F0225002F722BBFE0139
:0204B200F32233
:1004B400C2D5EC30E709B2D5E4C39DFDE49CFCEE63
:1004C40030E715B2D5E4C39FFFE49EFE120530C3A6
:1004D400E49DFDE49CFC800312053030D507C3E4A1
:0604E4009FFFE49EFE22D2
:10000E00E5082411F582E43400F583E0050822901A
:10001E00000E300703900011E475F0011205850201
:10002E0004EA2000E97F2ED2008018EF540F2490AE
:10003E00D43440D4FF30040BEF24BFB41A00500365
:10004E002461FFE50960021509050CE50C70020537
:10005E000B30070E90000EE475F001120585EF02CD
:10006E0004A20207E17403D2078003E4C207F50875
:10007E0090000E12059CE4F509F50BF50CE50960F0
:10008E00077F2012005180F5750AFFC201C200C21F
:10009E0002C203C205C206C20812001DFF700D3057
:1000AE0007057F00120062AF0CAE0B22B4255FC2B3
:1000BE00D5C20412001DFF24D0B40A00501A75F0E8
:1000CE000A780930D50508B6FF0106C6A426F62023
:1000DE00D5047002D20380D924CFB41A00EF500495
:1000EE00C2E5D204020263D20180C6D20080C0D221
:1000FE000280BCD2D580BAD20580B47F20120051C6
:10010E002002077401B5090040F112000EFF120023
:10011E005102008BD208D206809512000EFB1200FF
:10012E000EFA12000EF94A4B700679347A037BFFF1
:10013E0020022EE509602A7E008E8275830012054C
:10014E000360060EEE650A70F0C2D5EBC0E0EAC0A1
:10015E00E0E9C0E0EE1202AAD0E0F9D0E0FAD0E079
:10016E00FB1204EAFF60AAEBC0E0EAC0E0E9C0E0DF
:10017E00120051D0E02401F9D0E03400FAD0E0FBB7
:10018E00E50A0460DCD50AD980877BFF7A0279A65E
:10019E00D202809C791080027908C206C2088008BB
:1001AE00D2D5790A8004790AC2D5E50A047002F51F
:1001BE000AE4FAFDFEFF12000EFC7B08200113126A
:1001CE00000EFD7B1030000A12000EFE12000EFF14
:1001DE007B20EC3382D592D55013C3E43000069FBA
:1001EE00FFE49EFEE42001039DFDE49CFCE4CBF8BD
:1001FE00C201EC700CCFCECDCCE824F8F870F380B1
:10020E0017C3EF33FFEE33FEED33FDEC33FCEB3370
:10021E00FB994002FB0FD8E9EB300105F8D0E0C4A2
:10022E0048B201C0E00AEC4D4E4F78207B0070C200
:10023E00EAB50A0040BCC0E01202ACD0F0D0E0201B
:10024E000104C4C0E0C4B201C0F012003AD0F0D52F
:10025E00F0EB02008B1205A501285301A25800F9FC
:10026E004C00F54201A64F01AE4401AE49010E43CA
:08027E0001B4550198460198F6
:100286004501984703545000FD2D01012E01242BF2
:10029600010523012220033D2A00BD480000011C60
:1002A6003F3F3F00790AA2D5200314300509B91053
:1002B600020404B9080104A2D52006025001042054
:1002C60002689202B509005034C0E07F203003195D
:1002D6007F30A20272067205500F120303C202C2D9
:1002E60006C205C2087F30800F300503E9C0E01260
:1002F6000051300503D0E0F9D0E0B509CC30051740
:100306007F30B9100C1200517F583004077F788077
:1003160003B908031200513002057F2D0200517FF8
:10032600202008F87F2B2006F322920280CF286E29
:10033600756C6C2900D20112000E3001F8C20178EA
:100346000930D50108F60200BD2D50434958120068
:100356000E2403B405004001E490034F93120042BB
:0D036600743A120042D2037509040201A28C
:1004EA00BB010689828A83E0225002E722BBFE0210
:0904FA00E32289828A83E4932243
:10050300BB010CE58229F582E5833AF583E02250AD
:1005130006E92582F8E622BBFE06E92582F8E222F7
:0D052300E58229F582E5833AF583E4932211
:10053000BC000BBE0029EF8DF084FFADF022E4CCAF
:10054000F875F008EF2FFFEE33FEEC33FCEE9DEC78
:10055000984005FCEE9DFE0FD5F0E9E4CEFD22EDBE
:10056000F8F5F0EE8420D21CFEADF075F008EF2F08
:10057000FFED33FD4007985006D5F0F222C398FDF9
:050580000FD5F0EA2296
:10058500F8E0FBA3A3E0F925F0F0E58215827002FF
:070595001583E0FA38F022A3
:09059C00EBF0A3EAF0A3E9F02260
:1005A500D083D082F8E4937012740193700DA3A3E5
:1005B50093F8740193F5828883E4737402936860F9
:0605C500EFA3A3A380DFF9
:1007E100EFB40A07740D1207EC740A309811A89936
:1007F100B8130CC2983098FDA899C298B811F63078
:0708010099FDC299F599224F
:00000001FF
